:020000040000FA
:060000002F20342005282A
:04000600003400348E
:06000A004320BB2151213F
:10001000851B07286A20851B082843201021261BE2
:100020001B28B0015121B00A3C303006031D1A28AC
:100030008D200F281228E920B0010A30A500512197
:10004000851B27286A20851B272867212E28B00AB0
:100050003C303006031D2D281B281F280528831639
:10006000F1308F008312080083160730890080303A
:100070008500C030870003178801890183120313AC
:10008000850187010800203084008001840A353012
:100090000406031D4528080000306E28C8306E286D
:1000A00064306E2832306E2828306E281E306E285C
:1000B00014306E280A306E2809306E2808306E28F9
:1000C00007306E2806306E2805306E2804306E2802
:1000D00003306E2802306E2801306E28A8001D30D3
:1000E000A900E430AA00AA0B73280000A90B71280C
:1000F0000000A80B6F28000008000130A8000A309B
:10010000A900B730AA00AA0B83280000A90B8128F8
:100110000000A80B7F2800000800D72020308400B2
:100120002618942880030800A6189B280930800010
:10013000840A800308002619A52809308000840A53
:1001400005308000840A80030800A619B22809300F
:100150008000840A05308000840A09308000840A07
:1001600080030800261AC22809308000840A05305E
:100170008000840A09308000840A05308000840AE7
:1001800080030800A61AD52809308000840A0530AB
:100190008000840A09308000840A05308000840AC7
:1001A00009308000840A8003080026170800A60191
:1001B000AC01253084008008031DE0280314E128E9
:1001C0000310A60DAC0A840306302C06031DDB28A1
:1001D0000800A61B0800A601AD0120308400800A9B
:1001E0000A300006031D08008001840A800A0630D8
:1001F0000006031D08008001840AAD0A02302D06A6
:10020000031DEF28800A0A300006031D080009308C
:10021000A400A200A0000530A100A300A6170800BA
:100220000908AB0000302B06031D1D292030840077
:100230008001840A05308000080001302B06031D70
:100240002B29203084008001840A04308000840A35
:1002500001308000080002302B06031D39292030B0
:1002600084008001840A03308000840A0230800008
:10027000080003302B06031D47292030840080012D
:10028000840A02308000840A033080000800203095
:1002900084008001840A01308000840A04308000D8
:1002A0000800AE010314AE0D2030840008308A002F
:1002B000000800208A0185002E0887000310AE0D7B
:1002C000840A7D2087012E1F562987010800B3016B
:1002D000B401A701B101B20100302B06031D802932
:1002E0000B30A5213230B30027180800B00151218E
:1002F000B00A3C30300603197E297729AC217429D5
:1003000001302B06031D89293D30A5213230B30071
:10031000742902302B06031D92296F30A521283045
:10032000B300742903302B06031D9B299730A521A8
:100330002830B3007429BF30A5212830B3007429B8
:1003400006303106031DB10A0800A000A100A2007A
:10035000A300A400A5000800A0213108B2002030AD
:100360008400800A840AB20BB129B40A3308340627
:10037000031927140800E730A500E830A400E9308D
:10038000A300EA30A200EB30A100EC30A00008008E
:1010000082073F3406345B344F3466346D347D34AC
:1010100007347F346734403400346D34793400341D
:10102000763477340034713430345434773438348F
:1010300030345B3477345E345C34003438347734A5
:10104000003479346D347334793450347734003467
:101050006D343F3400346D3479346F343E3454345D
:101060005E345C346D3400340034003400340034B9
:10107000003400340034003400340034003476345A
:101080007734003439345C345434393438343E34B1
:1010900030345E345C34003438347734003479349E
:1010A0006D347334793450347734003406343F343B
:1010B0003F3400346D3479346F343E3454345E340C
:1010C0005C346D34003400340034003400340034B7
:1010D0000034003400340034003400340034003470
:1010E000003406346D343F3400346D3479346F3459
:1010F0003E3454345E345C346D34003476347734AA
:101100005434003478345034773454346D343934B2
:101110003E345034503430345E345C3400346F34F8
:1011200073346D340034003400340034003400343F
:1011300000347734503430346F34773478345C345E
:1011400000345B343F343F346D3479346F343E3493
:1011500054345E345C346D34003478345034773435
:1011600054346D3439343E345034503430345E3479
:101170005C346D3400340034003400340034003406
:1011800000347134303454347734383400345E34BD
:101190007934003438347734003479346D3473342E
:1011A00079345034773400345B346D343F346D34EB
:1011B00079346F343E3454345E345C346D340034EE
:1011C000003400340034003400340034003400347F
:0C11D00079346D34733479345034773442
:02400E00F42399
:02401000FF3E71
:00000001FF
